:0100000003FC
:0100010003FB
:0100020003FA
:0100030003F9
:0100040003F8
:0100050003F7
:0100060003F6
:0100070003F5
:0100080001F6
:0100090000F6
:01000A0000F5
:01000B0001F3
:01000C0001F2
:01000D0000F2
:01000E0002EF
:01000F0003ED
:0100100003EC
:0100110002EC
:0100120002EB
:0100130003E9
:0100140003E8
:0100150002E8
:0100160002E7
:0100170003E5
:0100180003E4
:0100190002E4
:01001A0002E3
:01001B0003E1
:01001C0003E0
:01001D0002E0
:01001E0000E1
:01001F0001DF
:0100200001DE
:0100210000DE
:0100220000DD
:0100230001DB
:0100240001DA
:0100250000DA
:0100260000D9
:0100270001D7
:0100280001D6
:0100290000D6
:01002A0000D5
:01002B0001D3
:01002C0001D2
:01002D0000D2
:01002E0000D1
:01002F0001CF
:0100300001CE
:0100310000CE
:0100320002CB
:0100330003C9
:0100340003C8
:0100350002C8
:0100360000C9
:0100370001C7
:0100380001C6
:0100390000C6
:01003A0000C5
:01003B0001C3
:01003C0001C2
:01003D0000C2
:01003E0000C1
:01003F0001BF
:0100400001BE
:0100410000BE
:0100420000BD
:0100430001BB
:0100440001BA
:0100450000BA
:0100460000B9
:0100470001B7
:0100480001B6
:0100490000B6
:01004A0000B5
:01004B0001B3
:01004C0001B2
:01004D0000B2
:01004E0000B1
:01004F0001AF
:0100500001AE
:0100510000AE
:0100520000AD
:0100530001AB
:0100540001AA
:0100550000AA
:0100560002A7
:0100570003A5
:0100580003A4
:0100590002A4
:01005A0000A5
:01005B0001A3
:01005C0001A2
:01005D0000A2
:01005E00029F
:01005F00039D
:01006000039C
:01006100029C
:01006200009D
:01006300019B
:01006400019A
:01006500009A
:010066000099
:010067000197
:010068000196
:010069000096
:01006A000095
:01006B000193
:01006C000192
:01006D000092
:01006E000091
:01006F00018F
:01007000018E
:01007100008E
:01007200008D
:01007300018B
:01007400018A
:01007500008A
:010076000089
:010077000187
:010078000186
:010079000086
:01007A000283
:01007B000381
:01007C000380
:01007D000280
:01007E00027F
:01007F00037D
:01008000037C
:01008100027C
:01008200007D
:01008300017B
:01008400017A
:01008500007A
:010086000277
:010087000375
:010088000374
:010089000274
:01008A000273
:01008B000371
:01008C000370
:01008D000270
:01008E00026F
:01008F00036D
:01009000036C
:01009100026C
:01009200006D
:01009300016B
:01009400016A
:01009500006A
:010096000069
:010097000167
:010098000166
:010099000066
:01009A000164
:01009B000361
:01009C000360
:01009D00035F
:01009E00035E
:01009F00035D
:0100A000035C
:0100A100015D
:0100A200005D
:0100A300005C
:0100A400015A
:0100A5000159
:0100A6000059
:0100A7000256
:0100A8000354
:0100A9000353
:0100AA000253
:0100AB000252
:0100AC000350
:0100AD00034F
:0100AE00024F
:0100AF00024E
:0100B000034C
:0100B100034B
:0100B200024B
:0100B300024A
:0100B4000348
:0100B5000347
:0100B6000247
:0100B7000048
:0100B8000146
:0100B9000145
:0100BA000045
:0100BB000044
:0100BC000142
:0100BD000141
:0100BE000041
:0100BF000040
:0100C000013E
:0100C100013D
:0100C200003D
:0100C300003C
:0100C400013A
:0100C5000139
:0100C6000039
:0100C7000038
:0100C8000136
:0100C9000135
:0100CA000035
:0100CB000232
:0100CC000330
:0100CD00032F
:0100CE00022F
:0100CF000030
:0100D000012E
:0100D100012D
:0100D200002D
:0100D300002C
:0100D400012A
:0100D5000129
:0100D6000029
:0100D7000028
:0100D8000126
:0100D9000125
:0100DA000025
:0100DB000024
:0100DC000122
:0100DD000121
:0100DE000021
:0100DF000020
:0100E000011E
:0100E100011D
:0100E200001D
:0100E300001C
:0100E400011A
:0100E5000119
:0100E6000019
:0100E7000018
:0100E8000116
:0100E9000115
:0100EA000015
:0100EB000014
:0100EC000112
:0100ED000111
:0100EE000011
:0100EF00020E
:0100F000030C
:0100F100030B
:0100F200020B
:0100F300000C
:0100F400010A
:0100F5000109
:0100F6000009
:0100F7000206
:0100F8000304
:0100F9000303
:0100FA000203
:0100FB000004
:0100FC000102
:0100FD000101
:0100FE000001
:0100FF000000
:0101000001FD
:0101010001FC
:0101020000FC
:0101030000FB
:0101040001F9
:0101050001F8
:0101060000F8
:0101070002F5
:0101080003F3
:0101090003F2
:01010A0002F2
:01010B0000F3
:01010C0001F1
:01010D0001F0
:01010E0000F0
:01010F0002ED
:0101100003EB
:0101110003EA
:0101120002EA
:0101130000EB
:0101140001E9
:0101150001E8
:0101160000E8
:0101170000E7
:0101180001E5
:0101190001E4
:01011A0000E4
:01011B0000E3
:01011C0001E1
:01011D0001E0
:01011E0000E0
:01011F0002DD
:0101200003DB
:0101210003DA
:0101220002DA
:0101230002D9
:0101240003D7
:0101250003D6
:0101260002D6
:0101270002D5
:0101280003D3
:0101290003D2
:01012A0002D2
:01012B0002D1
:01012C0003CF
:01012D0003CE
:01012E0002CE
:01012F0000CF
:0101300001CD
:0101310001CC
:0101320000CC
:0101330001CA
:0101340003C7
:0101350003C6
:0101360003C5
:0101370003C4
:0101380003C3
:0101390003C2
:01013A0001C3
:01013B0000C3
:01013C0000C2
:01013D0001C0
:01013E0001BF
:01013F0000BF
:0101400002BC
:0101410003BA
:0101420003B9
:0101430002B9
:0101440002B8
:0101450003B6
:0101460003B5
:0101470002B5
:0101480002B4
:0101490003B2
:01014A0003B1
:01014B0002B1
:01014C0002B0
:01014D0003AE
:01014E0003AD
:01014F0002AD
:0101500000AE
:0101510001AC
:0101520001AB
:0101530000AB
:0101540000AA
:0101550001A8
:0101560001A7
:0101570000A7
:0101580000A6
:0101590001A4
:01015A0001A3
:01015B0000A3
:01015C0000A2
:01015D0001A0
:01015E00019F
:01015F00009F
:01016000009E
:01016100019C
:01016200019B
:01016300009B
:01016400009A
:010165000198
:010166000197
:010167000097
:010168000294
:010169000392
:01016A000391
:01016B000291
:01016C000290
:01016D00038E
:01016E00038D
:01016F00028D
:01017000008E
:01017100018C
:01017200018B
:01017300008B
:01017400008A
:010175000188
:010176000187
:010177000087
:010178000086
:010179000184
:01017A000183
:01017B000083
:01017C000082
:01017D000180
:01017E00017F
:01017F00007F
:01018000007E
:01018100017C
:01018200017B
:01018300007B
:01018400007A
:010185000178
:010186000177
:010187000077
:010188000076
:010189000174
:01018A000173
:01018B000073
:01018C000072
:01018D000170
:01018E00016F
:01018F00006F
:01019000006E
:01019100016C
:01019200016B
:01019300006B
:010194000268
:010195000366
:010196000365
:010197000265
:010198000066
:010199000164
:01019A000163
:01019B000063
:01019C000062
:01019D000160
:01019E00015F
:01019F00005F
:0101A000005E
:0101A100015C
:0101A200015B
:0101A300005B
:0101A400005A
:0101A5000158
:0101A6000157
:0101A7000057
:0101A8000056
:0101A9000154
:0101AA000153
:0101AB000053
:0101AC000250
:0101AD00034E
:0101AE00034D
:0101AF00024D
:0101B000004E
:0101B100014C
:0101B200014B
:0101B300004B
:0101B400004A
:0101B5000148
:0101B6000147
:0101B7000047
:0101B8000046
:0101B9000144
:0101BA000143
:0101BB000043
:0101BC000042
:0101BD000140
:0101BE00013F
:0101BF00003F
:0101C000023C
:0101C100033A
:0101C2000339
:0101C3000239
:0101C400003A
:0101C5000138
:0101C6000137
:0101C7000037
:0101C8000036
:0101C9000134
:0101CA000133
:0101CB000033
:0101CC000131
:0101CD00032E
:0101CE00032D
:0101CF00032C
:0101D000032B
:0101D100032A
:0101D2000329
:0101D300012A
:0101D400002A
:0101D5000029
:0101D6000127
:0101D7000126
:0101D8000026
:0101D9000223
:0101DA000321
:0101DB000320
:0101DC000220
:0101DD00021F
:0101DE00031D
:0101DF00031C
:0101E000021C
:0101E100021B
:0101E2000319
:0101E3000318
:0101E4000218
:0101E5000217
:0101E6000315
:0101E7000314
:0101E8000214
:0101E9000015
:0101EA000113
:0101EB000112
:0101EC000012
:0101ED000011
:0101EE00010F
:0101EF00010E
:0101F000000E
:0101F100000D
:0101F200010B
:0101F300010A
:0101F400000A
:0101F5000009
:0101F6000107
:0101F7000106
:0101F8000006
:0101F9000005
:0101FA000103
:0101FB000102
:0101FC000002
:0101FD000001
:0101FE0001FF
:0101FF0001FE
:0102000000FD
:0102010002FA
:0102020003F8
:0102030003F7
:0102040002F7
:0102050002F6
:0102060003F4
:0102070003F3
:0102080002F3
:0102090000F4
:01020A0001F2
:01020B0001F1
:01020C0000F1
:01020D0000F0
:01020E0001EE
:01020F0001ED
:0102100000ED
:0102110000EC
:0102120001EA
:0102130001E9
:0102140000E9
:0102150002E6
:0102160003E4
:0102170003E3
:0102180002E3
:0102190000E4
:01021A0001E2
:01021B0001E1
:01021C0000E1
:01021D0000E0
:01021E0001DE
:01021F0001DD
:0102200000DD
:0102210000DC
:0102220001DA
:0102230001D9
:0102240000D9
:0102250000D8
:0102260001D6
:0102270001D5
:0102280000D5
:0102290000D4
:01022A0001D2
:01022B0001D1
:01022C0000D1
:01022D0000D0
:01022E0001CE
:01022F0001CD
:0102300000CD
:0102310000CC
:0102320001CA
:0102330001C9
:0102340000C9
:0102350002C6
:0102360003C4
:0102370003C3
:0102380002C3
:0102390002C2
:01023A0003C0
:01023B0003BF
:01023C0002BF
:01023D0000C0
:01023E0001BE
:01023F0001BD
:0102400000BD
:0102410000BC
:0102420001BA
:0102430001B9
:0102440000B9
:0102450000B8
:0102460001B6
:0102470001B5
:0102480000B5
:0102490000B4
:01024A0001B2
:01024B0001B1
:01024C0000B1
:01024D0000B0
:01024E0001AE
:01024F0001AD
:0102500000AD
:0102510000AC
:0102520001AA
:0102530001A9
:0102540000A9
:0102550000A8
:0102560001A6
:0102570001A5
:0102580000A5
:0102590002A2
:01025A0003A0
:01025B00039F
:01025C00029F
:01025D00029E
:01025E00039C
:01025F00039B
:01026000029B
:01026100009C
:01026200019A
:010263000199
:010264000099
:010265000197
:010266000394
:010267000393
:010268000392
:010269000391
:01026A000390
:01026B00038F
:01026C000190
:01026D000090
:01026E00008F
:01026F00018D
:01027000018C
:01027100008C
:010272000289
:010273000387
:010274000386
:010275000286
:010276000285
:010277000383
:010278000382
:010279000282
:01027A000281
:01027B00037F
:01027C00037E
:01027D00027E
:01027E00027D
:01027F00037B
:01028000037A
:01028100027A
:01028200007B
:010283000179
:010284000178
:010285000078
:010286000077
:010287000175
:010288000174
:010289000074
:01028A000073
:01028B000171
:01028C000170
:01028D000070
:01028E00006F
:01028F00016D
:01029000016C
:01029100006C
:01029200006B
:010293000169
:010294000168
:010295000068
:010296000067
:010297000165
:010298000164
:010299000064
:01029A000261
:01029B00035F
:01029C00035E
:01029D00025E
:01029E00025D
:01029F00035B
:0102A000035A
:0102A100025A
:0102A200005B
:0102A3000159
:0102A4000158
:0102A5000058
:0102A6000057
:0102A7000155
:0102A8000154
:0102A9000054
:0102AA000053
:0102AB000151
:0102AC000150
:0102AD000050
:0102AE00004F
:0102AF00014D
:0102B000014C
:0102B100004C
:0102B200004B
:0102B3000149
:0102B4000148
:0102B5000048
:0102B6000047
:0102B7000145
:0102B8000144
:0102B9000044
:0102BA000043
:0102BB000141
:0102BC000140
:0102BD000040
:0102BE00003F
:0102BF00013D
:0102C000013C
:0102C100003C
:0102C2000239
:0102C3000337
:0102C4000336
:0102C5000236
:0102C6000037
:0102C7000135
:0102C8000134
:0102C9000034
:0102CA000231
:0102CB00032F
:0102CC00032E
:0102CD00022E
:0102CE00022D
:0102CF00032B
:0102D000032A
:0102D100022A
:0102D2000229
:0102D3000327
:0102D4000326
:0102D5000226
:0102D6000027
:0102D7000125
:0102D8000124
:0102D9000024
:0102DA000221
:0102DB00031F
:0102DC00031E
:0102DD00021E
:0102DE00021D
:0102DF00031B
:0102E000031A
:0102E100021A
:0102E2000219
:0102E3000317
:0102E4000316
:0102E5000216
:0102E6000215
:0102E7000313
:0102E8000312
:0102E9000212
:0102EA000211
:0102EB00030F
:0102EC00030E
:0102ED00020E
:0102EE00020D
:0102EF00030B
:0102F000030A
:0102F100020A
:0102F2000209
:0102F3000307
:0102F4000306
:0102F5000206
:0102F6000205
:0102F7000303
:0102F8000302
:0102F9000202
:0102FA000003
:0102FB000101
:0102FC000100
:0102FD000000
:0102FE0001FE
:0102FF0003FB
:0103000003F9
:0103010003F8
:0103020003F7
:0103030003F6
:0103040003F5
:0103050001F6
:0103060000F6
:0103070000F5
:0103080001F3
:0103090001F2
:01030A0000F2
:01030B0002EF
:01030C0003ED
:01030D0003EC
:01030E0002EC
:01030F0002EB
:0103100003E9
:0103110003E8
:0103120002E8
:0103130002E7
:0103140003E5
:0103150003E4
:0103160002E4
:0103170002E3
:0103180003E1
:0103190003E0
:01031A0002E0
:01031B0000E1
:01031C0001DF
:01031D0001DE
:01031E0000DE
:01031F0000DD
:0103200001DB
:0103210001DA
:0103220000DA
:0103230000D9
:0103240001D7
:0103250001D6
:0103260000D6
:0103270000D5
:0103280001D3
:0103290001D2
:01032A0000D2
:01032B0000D1
:01032C0001CF
:01032D0001CE
:01032E0000CE
:01032F0000CD
:0103300001CB
:0103310001CA
:0103320000CA
:0103330002C7
:0103340003C5
:0103350003C4
:0103360002C4
:0103370002C3
:0103380003C1
:0103390003C0
:01033A0002C0
:01033B0000C1
:01033C0001BF
:01033D0001BE
:01033E0000BE
:01033F0000BD
:0103400001BB
:0103410001BA
:0103420000BA
:0103430000B9
:0103440001B7
:0103450001B6
:0103460000B6
:0103470000B5
:0103480001B3
:0103490001B2
:01034A0000B2
:01034B0000B1
:01034C0001AF
:01034D0001AE
:01034E0000AE
:01034F0000AD
:0103500001AB
:0103510001AA
:0103520000AA
:0103530000A9
:0103540001A7
:0103550001A6
:0103560000A6
:0103570000A5
:0103580001A3
:0103590001A2
:01035A0000A2
:01035B00029F
:01035C00039D
:01035D00039C
:01035E00029C
:01035F00029B
:010360000399
:010361000398
:010362000298
:010363000099
:010364000197
:010365000196
:010366000096
:010367000095
:010368000193
:010369000192
:01036A000092
:01036B000091
:01036C00018F
:01036D00018E
:01036E00008E
:01036F00008D
:01037000018B
:01037100018A
:01037200008A
:010373000287
:010374000385
:010375000384
:010376000284
:010377000283
:010378000381
:010379000380
:01037A000280
:01037B00027F
:01037C00037D
:01037D00037C
:01037E00027C
:01037F00027B
:010380000379
:010381000378
:010382000278
:010383000277
:010384000375
:010385000374
:010386000274
:010387000273
:010388000371
:010389000370
:01038A000270
:01038B00026F
:01038C00036D
:01038D00036C
:01038E00026C
:01038F00026B
:010390000369
:010391000368
:010392000268
:010393000069
:010394000167
:010395000166
:010396000066
:010397000164
:010398000361
:010399000360
:01039A00035F
:01039B00035E
:01039C00035D
:01039D00035C
:01039E00015D
:01039F00005D
:0103A000005C
:0103A100015A
:0103A2000159
:0103A3000059
:0103A4000256
:0103A5000354
:0103A6000353
:0103A7000253
:0103A8000252
:0103A9000350
:0103AA00034F
:0103AB00024F
:0103AC00024E
:0103AD00034C
:0103AE00034B
:0103AF00024B
:0103B000024A
:0103B1000348
:0103B2000347
:0103B3000247
:0103B4000048
:0103B5000146
:0103B6000145
:0103B7000045
:0103B8000044
:0103B9000142
:0103BA000141
:0103BB000041
:0103BC000040
:0103BD00013E
:0103BE00013D
:0103BF00003D
:0103C000003C
:0103C100013A
:0103C2000139
:0103C3000039
:0103C4000038
:0103C5000136
:0103C6000135
:0103C7000035
:0103C8000034
:0103C9000132
:0103CA000131
:0103CB000031
:0103CC00022E
:0103CD00032C
:0103CE00032B
:0103CF00022B
:0103D000022A
:0103D1000328
:0103D2000327
:0103D3000227
:0103D4000028
:0103D5000126
:0103D6000125
:0103D7000025
:0103D8000222
:0103D9000320
:0103DA00031F
:0103DB00021F
:0103DC00021E
:0103DD00031C
:0103DE00031B
:0103DF00021B
:0103E000001C
:0103E100011A
:0103E2000119
:0103E3000019
:0103E4000018
:0103E5000116
:0103E6000115
:0103E7000015
:0103E8000014
:0103E9000112
:0103EA000111
:0103EB000011
:0103EC000010
:0103ED00010E
:0103EE00010D
:0103EF00000D
:0103F000020A
:0103F1000308
:0103F2000307
:0103F3000207
:0103F4000206
:0103F5000304
:0103F6000303
:0103F7000203
:0103F8000004
:0103F9000102
:0103FA000101
:0103FB000001
:0103FC000000
:0103FD0001FE
:0103FE0001FD
:0103FF0000FD
:0104000000FB
:0104010001F9
:0104020001F8
:0104030000F8
:0104040000F7
:0104050001F5
:0104060001F4
:0104070000F4
:0104080000F3
:0104090001F1
:01040A0001F0
:01040B0000F0
:01040C0000EF
:01040D0001ED
:01040E0001EC
:01040F0000EC
:0104100000EB
:0104110001E9
:0104120001E8
:0104130000E8
:0104140002E5
:0104150003E3
:0104160003E2
:0104170002E2
:0104180000E3
:0104190001E1
:01041A0001E0
:01041B0000E0
:01041C0002DD
:01041D0003DB
:01041E0003DA
:01041F0002DA
:0104200002D9
:0104210003D7
:0104220003D6
:0104230002D6
:0104240002D5
:0104250003D3
:0104260003D2
:0104270002D2
:0104280000D3
:0104290001D1
:01042A0001D0
:01042B0000D0
:01042C0000CF
:01042D0001CD
:01042E0001CC
:01042F0000CC
:0104300001CA
:0104310003C7
:0104320003C6
:0104330003C5
:0104340003C4
:0104350003C3
:0104360003C2
:0104370001C3
:0104380000C3
:0104390000C2
:01043A0001C0
:01043B0001BF
:01043C0000BF
:01043D0002BC
:01043E0003BA
:01043F0003B9
:0104400002B9
:0104410002B8
:0104420003B6
:0104430003B5
:0104440002B5
:0104450002B4
:0104460003B2
:0104470003B1
:0104480002B1
:0104490002B0
:01044A0003AE
:01044B0003AD
:01044C0002AD
:01044D0000AE
:01044E0001AC
:01044F0001AB
:0104500000AB
:0104510000AA
:0104520001A8
:0104530001A7
:0104540000A7
:0104550000A6
:0104560001A4
:0104570001A3
:0104580000A3
:0104590000A2
:01045A0001A0
:01045B00019F
:01045C00009F
:01045D00009E
:01045E00019C
:01045F00019B
:01046000009B
:01046100009A
:010462000198
:010463000197
:010464000097
:010465000294
:010466000392
:010467000391
:010468000291
:010469000290
:01046A00038E
:01046B00038D
:01046C00028D
:01046D00008E
:01046E00018C
:01046F00018B
:01047000008B
:010471000288
:010472000386
:010473000385
:010474000285
:010475000284
:010476000382
:010477000381
:010478000281
:010479000082
:01047A000180
:01047B00017F
:01047C00007F
:01047D00007E
:01047E00017C
:01047F00017B
:01048000007B
:01048100007A
:010482000178
:010483000177
:010484000077
:010485000076
:010486000174
:010487000173
:010488000073
:010489000270
:01048A00036E
:01048B00036D
:01048C00026D
:01048D00026C
:01048E00036A
:01048F000369
:010490000269
:01049100006A
:010492000168
:010493000167
:010494000067
:010495000066
:010496000164
:010497000163
:010498000063
:010499000260
:01049A00035E
:01049B00035D
:01049C00025D
:01049D00005E
:01049E00015C
:01049F00015B
:0104A000005B
:0104A100005A
:0104A2000158
:0104A3000157
:0104A4000057
:0104A5000254
:0104A6000352
:0104A7000351
:0104A8000251
:0104A9000250
:0104AA00034E
:0104AB00034D
:0104AC00024D
:0104AD00024C
:0104AE00034A
:0104AF000349
:0104B0000249
:0104B100004A
:0104B2000148
:0104B3000147
:0104B4000047
:0104B5000046
:0104B6000144
:0104B7000143
:0104B8000043
:0104B9000042
:0104BA000140
:0104BB00013F
:0104BC00003F
:0104BD00023C
:0104BE00033A
:0104BF000339
:0104C0000239
:0104C100003A
:0104C2000138
:0104C3000137
:0104C4000037
:0104C5000036
:0104C6000134
:0104C7000133
:0104C8000033
:0104C9000131
:0104CA00032E
:0104CB00032D
:0104CC00032C
:0104CD00032B
:0104CE00032A
:0104CF000329
:0104D000012A
:0104D100002A
:0104D2000029
:0104D3000127
:0104D4000126
:0104D5000026
:0104D6000223
:0104D7000321
:0104D8000320
:0104D9000220
:0104DA00021F
:0104DB00031D
:0104DC00031C
:0104DD00021C
:0104DE00021B
:0104DF000319
:0104E0000318
:0104E1000218
:0104E2000217
:0104E3000315
:0104E4000314
:0104E5000214
:0104E6000015
:0104E7000113
:0104E8000112
:0104E9000012
:0104EA000011
:0104EB00010F
:0104EC00010E
:0104ED00000E
:0104EE00000D
:0104EF00010B
:0104F000010A
:0104F100000A
:0104F2000009
:0104F3000107
:0104F4000106
:0104F5000006
:0104F6000005
:0104F7000103
:0104F8000102
:0104F9000002
:0104FA000001
:0104FB0001FF
:0104FC0001FE
:0104FD0000FE
:0104FE0002FB
:0104FF0003F9
:0105000003F7
:0105010002F7
:0105020002F6
:0105030003F4
:0105040003F3
:0105050002F3
:0105060000F4
:0105070001F2
:0105080001F1
:0105090000F1
:01050A0002EE
:01050B0003EC
:01050C0003EB
:01050D0002EB
:01050E0002EA
:01050F0003E8
:0105100003E7
:0105110002E7
:0105120000E8
:0105130001E6
:0105140001E5
:0105150000E5
:0105160000E4
:0105170001E2
:0105180001E1
:0105190000E1
:01051A0000E0
:01051B0001DE
:01051C0001DD
:01051D0000DD
:01051E0000DC
:01051F0001DA
:0105200001D9
:0105210000D9
:0105220002D6
:0105230003D4
:0105240003D3
:0105250002D3
:0105260002D2
:0105270003D0
:0105280003CF
:0105290002CF
:01052A0000D0
:01052B0001CE
:01052C0001CD
:01052D0000CD
:01052E0000CC
:01052F0001CA
:0105300001C9
:0105310000C9
:0105320002C6
:0105330003C4
:0105340003C3
:0105350002C3
:0105360002C2
:0105370003C0
:0105380003BF
:0105390002BF
:01053A0000C0
:01053B0001BE
:01053C0001BD
:01053D0000BD
:01053E0000BC
:01053F0001BA
:0105400001B9
:0105410000B9
:0105420000B8
:0105430001B6
:0105440001B5
:0105450000B5
:0105460002B2
:0105470003B0
:0105480003AF
:0105490002AF
:01054A0000B0
:01054B0001AE
:01054C0001AD
:01054D0000AD
:01054E0000AC
:01054F0001AA
:0105500001A9
:0105510000A9
:0105520000A8
:0105530001A6
:0105540001A5
:0105550000A5
:0105560002A2
:0105570003A0
:01055800039F
:01055900029F
:01055A00029E
:01055B00039C
:01055C00039B
:01055D00029B
:01055E00009C
:01055F00019A
:010560000199
:010561000099
:010562000197
:010563000394
:010564000393
:010565000392
:010566000391
:010567000390
:01056800038F
:010569000190
:01056A000090
:01056B00008F
:01056C00018D
:01056D00018C
:01056E00008C
:01056F000289
:010570000387
:010571000386
:010572000286
:010573000285
:010574000383
:010575000382
:010576000282
:010577000281
:01057800037F
:01057900037E
:01057A00027E
:01057B00027D
:01057C00037B
:01057D00037A
:01057E00027A
:01057F00007B
:010580000179
:010581000178
:010582000078
:010583000077
:010584000175
:010585000174
:010586000074
:010587000073
:010588000171
:010589000170
:01058A000070
:01058B00006F
:01058C00016D
:01058D00016C
:01058E00006C
:01058F00006B
:010590000169
:010591000168
:010592000068
:010593000067
:010594000165
:010595000164
:010596000064
:010597000261
:01059800035F
:01059900035E
:01059A00025E
:01059B00025D
:01059C00035B
:01059D00035A
:01059E00025A
:01059F00005B
:0105A0000159
:0105A1000158
:0105A2000058
:0105A3000255
:0105A4000353
:0105A5000352
:0105A6000252
:0105A7000251
:0105A800034F
:0105A900034E
:0105AA00024E
:0105AB00004F
:0105AC00014D
:0105AD00014C
:0105AE00004C
:0105AF00004B
:0105B0000149
:0105B1000148
:0105B2000048
:0105B3000047
:0105B4000145
:0105B5000144
:0105B6000044
:0105B7000043
:0105B8000141
:0105B9000140
:0105BA000040
:0105BB00023D
:0105BC00033B
:0105BD00033A
:0105BE00023A
:0105BF00003B
:0105C0000139
:0105C1000138
:0105C2000038
:0105C3000037
:0105C4000135
:0105C5000134
:0105C6000034
:0105C7000033
:0105C8000131
:0105C9000130
:0105CA000030
:0105CB00002F
:0105CC00012D
:0105CD00012C
:0105CE00002C
:0105CF000229
:0105D0000327
:0105D1000326
:0105D2000226
:0105D3000027
:0105D4000125
:0105D5000124
:0105D6000024
:0105D7000221
:0105D800031F
:0105D900031E
:0105DA00021E
:0105DB00021D
:0105DC00031B
:0105DD00031A
:0105DE00021A
:0105DF000219
:0105E0000317
:0105E1000316
:0105E2000216
:0105E3000017
:0105E4000115
:0105E5000114
:0105E6000014
:0105E7000013
:0105E8000111
:0105E9000110
:0105EA000010
:0105EB00000F
:0105EC00010D
:0105ED00010C
:0105EE00000C
:0105EF00000B
:0105F0000109
:0105F1000108
:0105F2000008
:0105F3000007
:0105F4000105
:0105F5000104
:0105F6000004
:0105F7000003
:0105F8000101
:0105F9000100
:0105FA000000
:0105FB0001FE
:0105FC0003FB
:0105FD0003FA
:0105FE0003F9
:0105FF0003F8
:0106000003F6
:0106010003F5
:0106020001F6
:0106030000F6
:0106040000F5
:0106050001F3
:0106060001F2
:0106070000F2
:0106080002EF
:0106090003ED
:01060A0003EC
:01060B0002EC
:01060C0002EB
:01060D0003E9
:01060E0003E8
:01060F0002E8
:0106100002E7
:0106110003E5
:0106120003E4
:0106130002E4
:0106140002E3
:0106150003E1
:0106160003E0
:0106170002E0
:0106180000E1
:0106190001DF
:01061A0001DE
:01061B0000DE
:01061C0000DD
:01061D0001DB
:01061E0001DA
:01061F0000DA
:0106200000D9
:0106210001D7
:0106220001D6
:0106230000D6
:0106240000D5
:0106250001D3
:0106260001D2
:0106270000D2
:0106280000D1
:0106290001CF
:01062A0001CE
:01062B0000CE
:01062C0000CD
:01062D0001CB
:01062E0001CA
:01062F0000CA
:0106300002C7
:0106310003C5
:0106320003C4
:0106330002C4
:0106340002C3
:0106350003C1
:0106360003C0
:0106370002C0
:0106380000C1
:0106390001BF
:01063A0001BE
:01063B0000BE
:01063C0002BB
:01063D0003B9
:01063E0003B8
:01063F0002B8
:0106400002B7
:0106410003B5
:0106420003B4
:0106430002B4
:0106440002B3
:0106450003B1
:0106460003B0
:0106470002B0
:0106480000B1
:0106490001AF
:01064A0001AE
:01064B0000AE
:01064C0000AD
:01064D0001AB
:01064E0001AA
:01064F0000AA
:0106500000A9
:0106510001A7
:0106520001A6
:0106530000A6
:0106540000A5
:0106550001A3
:0106560001A2
:0106570000A2
:0106580000A1
:01065900019F
:01065A00019E
:01065B00009E
:01065C00009D
:01065D00019B
:01065E00019A
:01065F00009A
:010660000297
:010661000395
:010662000394
:010663000294
:010664000095
:010665000193
:010666000192
:010667000092
:010668000091
:01066900018F
:01066A00018E
:01066B00008E
:01066C00008D
:01066D00018B
:01066E00018A
:01066F00008A
:010670000287
:010671000385
:010672000384
:010673000284
:010674000085
:010675000183
:010676000182
:010677000082
:01067800027F
:01067900037D
:01067A00037C
:01067B00027C
:01067C00007D
:01067D00017B
:01067E00017A
:01067F00007A
:010680000079
:010681000177
:010682000176
:010683000076
:010684000075
:010685000173
:010686000172
:010687000072
:010688000071
:01068900016F
:01068A00016E
:01068B00006E
:01068C00006D
:01068D00016B
:01068E00016A
:01068F00006A
:010690000069
:010691000167
:010692000166
:010693000066
:010694000164
:010695000361
:010696000360
:01069700035F
:01069800035E
:01069900035D
:01069A00035C
:01069B00015D
:01069C00005D
:01069D00005C
:01069E00015A
:01069F000159
:0106A0000059
:0106A1000256
:0106A2000354
:0106A3000353
:0106A4000253
:0106A5000252
:0106A6000350
:0106A700034F
:0106A800024F
:0106A900024E
:0106AA00034C
:0106AB00034B
:0106AC00024B
:0106AD00024A
:0106AE000348
:0106AF000347
:0106B0000247
:0106B1000048
:0106B2000146
:0106B3000145
:0106B4000045
:0106B5000044
:0106B6000142
:0106B7000141
:0106B8000041
:0106B9000040
:0106BA00013E
:0106BB00013D
:0106BC00003D
:0106BD00003C
:0106BE00013A
:0106BF000139
:0106C0000039
:0106C1000038
:0106C2000136
:0106C3000135
:0106C4000035
:0106C5000034
:0106C6000132
:0106C7000131
:0106C8000031
:0106C900022E
:0106CA00032C
:0106CB00032B
:0106CC00022B
:0106CD00022A
:0106CE000328
:0106CF000327
:0106D0000227
:0106D1000028
:0106D2000126
:0106D3000125
:0106D4000025
:0106D5000222
:0106D6000320
:0106D700031F
:0106D800021F
:0106D900021E
:0106DA00031C
:0106DB00031B
:0106DC00021B
:0106DD00021A
:0106DE000318
:0106DF000317
:0106E0000217
:0106E1000018
:0106E2000116
:0106E3000115
:0106E4000015
:0106E5000014
:0106E6000112
:0106E7000111
:0106E8000011
:0106E9000010
:0106EA00010E
:0106EB00010D
:0106EC00000D
:0106ED00000C
:0106EE00010A
:0106EF000109
:0106F0000009
:0106F1000008
:0106F2000106
:0106F3000105
:0106F4000005
:0106F5000004
:0106F6000102
:0106F7000101
:0106F8000001
:0106F9000000
:0106FA0001FE
:0106FB0001FD
:0106FC0000FD
:0106FD0002FA
:0106FE0003F8
:0106FF0003F7
:0107000002F6
:0107010002F5
:0107020003F3
:0107030003F2
:0107040002F2
:0107050000F3
:0107060001F1
:0107070001F0
:0107080000F0
:0107090000EF
:01070A0001ED
:01070B0001EC
:01070C0000EC
:01070D0002E9
:01070E0003E7
:01070F0003E6
:0107100002E6
:0107110000E7
:0107120001E5
:0107130001E4
:0107140000E4
:0107150002E1
:0107160003DF
:0107170003DE
:0107180002DE
:0107190002DD
:01071A0003DB
:01071B0003DA
:01071C0002DA
:01071D0000DB
:01071E0001D9
:01071F0001D8
:0107200000D8
:0107210002D5
:0107220003D3
:0107230003D2
:0107240002D2
:0107250000D3
:0107260001D1
:0107270001D0
:0107280000D0
:0107290000CF
:01072A0001CD
:01072B0001CC
:01072C0000CC
:01072D0001CA
:01072E0003C7
:01072F0003C6
:0107300003C5
:0107310003C4
:0107320003C3
:0107330003C2
:0107340001C3
:0107350000C3
:0107360000C2
:0107370001C0
:0107380001BF
:0107390000BF
:01073A0002BC
:01073B0003BA
:01073C0003B9
:01073D0002B9
:01073E0002B8
:01073F0003B6
:0107400003B5
:0107410002B5
:0107420002B4
:0107430003B2
:0107440003B1
:0107450002B1
:0107460002B0
:0107470003AE
:0107480003AD
:0107490002AD
:01074A0000AE
:01074B0001AC
:01074C0001AB
:01074D0000AB
:01074E0000AA
:01074F0001A8
:0107500001A7
:0107510000A7
:0107520000A6
:0107530001A4
:0107540001A3
:0107550000A3
:0107560000A2
:0107570001A0
:01075800019F
:01075900009F
:01075A00009E
:01075B00019C
:01075C00019B
:01075D00009B
:01075E00009A
:01075F000198
:010760000197
:010761000097
:010762000294
:010763000392
:010764000391
:010765000291
:010766000290
:01076700038E
:01076800038D
:01076900028D
:01076A00008E
:01076B00018C
:01076C00018B
:01076D00008B
:01076E000288
:01076F000386
:010770000385
:010771000285
:010772000284
:010773000382
:010774000381
:010775000281
:010776000280
:01077700037E
:01077800037D
:01077900027D
:01077A00007E
:01077B00017C
:01077C00017B
:01077D00007B
:01077E00007A
:01077F000178
:010780000177
:010781000077
:010782000076
:010783000174
:010784000173
:010785000073
:010786000072
:010787000170
:01078800016F
:01078900006F
:01078A00026C
:01078B00036A
:01078C000369
:01078D000269
:01078E00006A
:01078F000168
:010790000167
:010791000067
:010792000264
:010793000362
:010794000361
:010795000261
:010796000062
:010797000160
:01079800015F
:01079900005F
:01079A00025C
:01079B00035A
:01079C000359
:01079D000259
:01079E00005A
:01079F000158
:0107A0000157
:0107A1000057
:0107A2000056
:0107A3000154
:0107A4000153
:0107A5000053
:0107A6000250
:0107A700034E
:0107A800034D
:0107A900024D
:0107AA00024C
:0107AB00034A
:0107AC000349
:0107AD000249
:0107AE000248
:0107AF000346
:0107B0000345
:0107B1000245
:0107B2000244
:0107B3000342
:0107B4000341
:0107B5000241
:0107B6000042
:0107B7000140
:0107B800013F
:0107B900003F
:0107BA00003E
:0107BB00013C
:0107BC00013B
:0107BD00003B
:0107BE00003A
:0107BF000138
:0107C0000137
:0107C1000037
:0107C2000036
:0107C3000134
:0107C4000133
:0107C5000033
:0107C6000131
:0107C700032E
:0107C800032D
:0107C900032C
:0107CA00032B
:0107CB00032A
:0107CC000329
:0107CD00012A
:0107CE00002A
:0107CF000029
:0107D0000127
:0107D1000126
:0107D2000026
:0107D3000223
:0107D4000321
:0107D5000320
:0107D6000220
:0107D700021F
:0107D800031D
:0107D900031C
:0107DA00021C
:0107DB00021B
:0107DC000319
:0107DD000318
:0107DE000218
:0107DF000217
:0107E0000315
:0107E1000314
:0107E2000214
:0107E3000015
:0107E4000113
:0107E5000112
:0107E6000012
:0107E7000011
:0107E800010F
:0107E900010E
:0107EA00000E
:0107EB00000D
:0107EC00010B
:0107ED00010A
:0107EE00000A
:0107EF000009
:0107F0000107
:0107F1000106
:0107F2000006
:0107F3000005
:0107F4000103
:0107F5000102
:0107F6000002
:0107F7000001
:0107F80001FF
:0107F90001FE
:0107FA0000FE
:0107FB0002FB
:0107FC0003F9
:0107FD0003F8
:0107FE0002F8
:0107FF0002F7
:0108000003F4
:0108010003F3
:0108020002F3
:0108030000F4
:0108040001F2
:0108050001F1
:0108060000F1
:0108070002EE
:0108080003EC
:0108090003EB
:01080A0002EB
:01080B0002EA
:01080C0003E8
:01080D0003E7
:01080E0002E7
:01080F0002E6
:0108100003E4
:0108110003E3
:0108120002E3
:0108130000E4
:0108140001E2
:0108150001E1
:0108160000E1
:0108170000E0
:0108180001DE
:0108190001DD
:01081A0000DD
:01081B0000DC
:01081C0001DA
:01081D0001D9
:01081E0000D9
:01081F0000D8
:0108200001D6
:0108210001D5
:0108220000D5
:0108230002D2
:0108240003D0
:0108250003CF
:0108260002CF
:0108270000D0
:0108280001CE
:0108290001CD
:01082A0000CD
:01082B0002CA
:01082C0003C8
:01082D0003C7
:01082E0002C7
:01082F0002C6
:0108300003C4
:0108310003C3
:0108320002C3
:0108330002C2
:0108340003C0
:0108350003BF
:0108360002BF
:0108370000C0
:0108380001BE
:0108390001BD
:01083A0000BD
:01083B0000BC
:01083C0001BA
:01083D0001B9
:01083E0000B9
:01083F0000B8
:0108400001B6
:0108410001B5
:0108420000B5
:0108430000B4
:0108440001B2
:0108450001B1
:0108460000B1
:0108470000B0
:0108480001AE
:0108490001AD
:01084A0000AD
:01084B0000AC
:01084C0001AA
:01084D0001A9
:01084E0000A9
:01084F0000A8
:0108500001A6
:0108510001A5
:0108520000A5
:0108530000A4
:0108540001A2
:0108550001A1
:0108560000A1
:01085700029E
:01085800039C
:01085900039B
:01085A00029B
:01085B00009C
:01085C00019A
:01085D000199
:01085E000099
:01085F000197
:010860000394
:010861000393
:010862000392
:010863000391
:010864000390
:01086500038F
:010866000190
:010867000090
:01086800008F
:01086900018D
:01086A00018C
:01086B00008C
:01086C000289
:01086D000387
:01086E000386
:01086F000286
:010870000285
:010871000383
:010872000382
:010873000282
:010874000281
:01087500037F
:01087600037E
:01087700027E
:01087800027D
:01087900037B
:01087A00037A
:01087B00027A
:01087C00007B
:01087D000179
:01087E000178
:01087F000078
:010880000077
:010881000175
:010882000174
:010883000074
:010884000073
:010885000171
:010886000170
:010887000070
:01088800006F
:01088900016D
:01088A00016C
:01088B00006C
:01088C00006B
:01088D000169
:01088E000168
:01088F000068
:010890000067
:010891000165
:010892000164
:010893000064
:010894000261
:01089500035F
:01089600035E
:01089700025E
:01089800025D
:01089900035B
:01089A00035A
:01089B00025A
:01089C00005B
:01089D000159
:01089E000158
:01089F000058
:0108A0000255
:0108A1000353
:0108A2000352
:0108A3000252
:0108A4000251
:0108A500034F
:0108A600034E
:0108A700024E
:0108A800024D
:0108A900034B
:0108AA00034A
:0108AB00024A
:0108AC00004B
:0108AD000149
:0108AE000148
:0108AF000048
:0108B0000047
:0108B1000145
:0108B2000144
:0108B3000044
:0108B4000043
:0108B5000141
:0108B6000140
:0108B7000040
:0108B800003F
:0108B900013D
:0108BA00013C
:0108BB00003C
:0108BC00003B
:0108BD000139
:0108BE000138
:0108BF000038
:0108C0000235
:0108C1000333
:0108C2000332
:0108C3000232
:0108C4000033
:0108C5000131
:0108C6000130
:0108C7000030
:0108C800022D
:0108C900032B
:0108CA00032A
:0108CB00022A
:0108CC000229
:0108CD000327
:0108CE000326
:0108CF000226
:0108D0000027
:0108D1000125
:0108D2000124
:0108D3000024
:0108D4000023
:0108D5000121
:0108D6000120
:0108D7000020
:0108D800021D
:0108D900031B
:0108DA00031A
:0108DB00021A
:0108DC000219
:0108DD000317
:0108DE000316
:0108DF000216
:0108E0000017
:0108E1000115
:0108E2000114
:0108E3000014
:0108E4000013
:0108E5000111
:0108E6000110
:0108E7000010
:0108E800000F
:0108E900010D
:0108EA00010C
:0108EB00000C
:0108EC00000B
:0108ED000109
:0108EE000108
:0108EF000008
:0108F0000007
:0108F1000105
:0108F2000104
:0108F3000004
:0108F4000003
:0108F5000101
:0108F6000100
:0108F7000000
:0108F80001FE
:0108F90003FB
:0108FA0003FA
:0108FB0003F9
:0108FC0003F8
:0108FD0003F7
:0108FE0003F6
:0108FF0001F7
:0109000000F6
:0109010000F5
:0109020001F3
:0109030001F2
:0109040000F2
:0109050002EF
:0109060003ED
:0109070003EC
:0109080002EC
:0109090002EB
:01090A0003E9
:01090B0003E8
:01090C0002E8
:01090D0002E7
:01090E0003E5
:01090F0003E4
:0109100002E4
:0109110002E3
:0109120003E1
:0109130003E0
:0109140002E0
:0109150000E1
:0109160001DF
:0109170001DE
:0109180000DE
:0109190000DD
:01091A0001DB
:01091B0001DA
:01091C0000DA
:01091D0000D9
:01091E0001D7
:01091F0001D6
:0109200000D6
:0109210000D5
:0109220001D3
:0109230001D2
:0109240000D2
:0109250000D1
:0109260001CF
:0109270001CE
:0109280000CE
:0109290000CD
:01092A0001CB
:01092B0001CA
:01092C0000CA
:01092D0002C7
:01092E0003C5
:01092F0003C4
:0109300002C4
:0109310002C3
:0109320003C1
:0109330003C0
:0109340002C0
:0109350000C1
:0109360001BF
:0109370001BE
:0109380000BE
:0109390002BB
:01093A0003B9
:01093B0003B8
:01093C0002B8
:01093D0002B7
:01093E0003B5
:01093F0003B4
:0109400002B4
:0109410002B3
:0109420003B1
:0109430003B0
:0109440002B0
:0109450000B1
:0109460001AF
:0109470001AE
:0109480000AE
:0109490000AD
:01094A0001AB
:01094B0001AA
:01094C0000AA
:01094D0000A9
:01094E0001A7
:01094F0001A6
:0109500000A6
:0109510000A5
:0109520001A3
:0109530001A2
:0109540000A2
:0109550000A1
:01095600019F
:01095700019E
:01095800009E
:01095900009D
:01095A00019B
:01095B00019A
:01095C00009A
:01095D000297
:01095E000395
:01095F000394
:010960000294
:010961000095
:010962000193
:010963000192
:010964000092
:01096500028F
:01096600038D
:01096700038C
:01096800028C
:01096900008D
:01096A00018B
:01096B00018A
:01096C00008A
:01096D000089
:01096E000187
:01096F000186
:010970000086
:010971000085
:010972000183
:010973000182
:010974000082
:010975000081
:01097600017F
:01097700017E
:01097800007E
:01097900027B
:01097A000379
:01097B000378
:01097C000278
:01097D000277
:01097E000375
:01097F000374
:010980000274
:010981000075
:010982000173
:010983000172
:010984000072
:01098500026F
:01098600036D
:01098700036C
:01098800026C
:01098900006D
:01098A00016B
:01098B00016A
:01098C00006A
:01098D000069
:01098E000167
:01098F000166
:010990000066
:010991000164
:010992000361
:010993000360
:01099400035F
:01099500035E
:01099600035D
:01099700035C
:01099800015D
:01099900005D
:01099A00005C
:01099B00015A
:01099C000159
:01099D000059
:01099E000256
:01099F000354
:0109A0000353
:0109A1000253
:0109A2000252
:0109A3000350
:0109A400034F
:0109A500024F
:0109A600024E
:0109A700034C
:0109A800034B
:0109A900024B
:0109AA00024A
:0109AB000348
:0109AC000347
:0109AD000247
:0109AE000048
:0109AF000146
:0109B0000145
:0109B1000045
:0109B2000044
:0109B3000142
:0109B4000141
:0109B5000041
:0109B6000040
:0109B700013E
:0109B800013D
:0109B900003D
:0109BA00003C
:0109BB00013A
:0109BC000139
:0109BD000039
:0109BE000038
:0109BF000136
:0109C0000135
:0109C1000035
:0109C2000034
:0109C3000132
:0109C4000131
:0109C5000031
:0109C600022E
:0109C700032C
:0109C800032B
:0109C900022B
:0109CA00022A
:0109CB000328
:0109CC000327
:0109CD000227
:0109CE000226
:0109CF000324
:0109D0000323
:0109D1000223
:0109D2000024
:0109D3000122
:0109D4000121
:0109D5000021
:0109D6000020
:0109D700011E
:0109D800011D
:0109D900001D
:0109DA00021A
:0109DB000318
:0109DC000317
:0109DD000217
:0109DE000018
:0109DF000116
:0109E0000115
:0109E1000015
:0109E2000014
:0109E3000112
:0109E4000111
:0109E5000011
:0109E6000010
:0109E700010E
:0109E800010D
:0109E900000D
:0109EA00000C
:0109EB00010A
:0109EC000109
:0109ED000009
:0109EE000008
:0109EF000106
:0109F0000105
:0109F1000005
:0109F2000004
:0109F3000102
:0109F4000101
:0109F5000001
:0109F60002FE
:0109F70003FC
:0109F80003FB
:0109F90002FB
:0109FA0000FC
:0109FB0001FA
:0109FC0001F9
:0109FD0000F9
:0109FE0002F6
:0109FF0003F4
:010A000003F2
:010A010002F2
:010A020000F3
:010A030001F1
:010A040001F0
:010A050000F0
:010A060000EF
:010A070001ED
:010A080001EC
:010A090000EC
:010A0A0000EB
:010A0B0001E9
:010A0C0001E8
:010A0D0000E8
:010A0E0000E7
:010A0F0001E5
:010A100001E4
:010A110000E4
:010A120000E3
:010A130001E1
:010A140001E0
:010A150000E0
:010A160000DF
:010A170001DD
:010A180001DC
:010A190000DC
:010A1A0000DB
:010A1B0001D9
:010A1C0001D8
:010A1D0000D8
:010A1E0002D5
:010A1F0003D3
:010A200003D2
:010A210002D2
:010A220000D3
:010A230001D1
:010A240001D0
:010A250000D0
:010A260000CF
:010A270001CD
:010A280001CC
:010A290000CC
:010A2A0001CA
:010A2B0003C7
:010A2C0003C6
:010A2D0003C5
:010A2E0003C4
:010A2F0003C3
:010A300003C2
:010A310001C3
:010A320000C3
:010A330000C2
:010A340001C0
:010A350001BF
:010A360000BF
:010A370002BC
:010A380003BA
:010A390003B9
:010A3A0002B9
:010A3B0002B8
:010A3C0003B6
:010A3D0003B5
:010A3E0002B5
:010A3F0002B4
:010A400003B2
:010A410003B1
:010A420002B1
:010A430002B0
:010A440003AE
:010A450003AD
:010A460002AD
:010A470000AE
:010A480001AC
:010A490001AB
:010A4A0000AB
:010A4B0000AA
:010A4C0001A8
:010A4D0001A7
:010A4E0000A7
:010A4F0000A6
:010A500001A4
:010A510001A3
:010A520000A3
:010A530000A2
:010A540001A0
:010A5500019F
:010A5600009F
:010A5700009E
:010A5800019C
:010A5900019B
:010A5A00009B
:010A5B00009A
:010A5C000198
:010A5D000197
:010A5E000097
:010A5F000294
:010A60000392
:010A61000391
:010A62000291
:010A63000290
:010A6400038E
:010A6500038D
:010A6600028D
:010A6700028C
:010A6800038A
:010A69000389
:010A6A000289
:010A6B00008A
:010A6C000188
:010A6D000187
:010A6E000087
:010A6F000086
:010A70000184
:010A71000183
:010A72000083
:010A73000280
:010A7400037E
:010A7500037D
:010A7600027D
:010A7700007E
:010A7800017C
:010A7900017B
:010A7A00007B
:010A7B00007A
:010A7C000178
:010A7D000177
:010A7E000077
:010A7F000076
:010A80000174
:010A81000173
:010A82000073
:010A83000072
:010A84000170
:010A8500016F
:010A8600006F
:010A8700006E
:010A8800016C
:010A8900016B
:010A8A00006B
:010A8B00006A
:010A8C000168
:010A8D000167
:010A8E000067
:010A8F000264
:010A90000362
:010A91000361
:010A92000261
:010A93000260
:010A9400035E
:010A9500035D
:010A9600025D
:010A9700005E
:010A9800015C
:010A9900015B
:010A9A00005B
:010A9B00005A
:010A9C000158
:010A9D000157
:010A9E000057
:010A9F000056
:010AA0000154
:010AA1000153
:010AA2000053
:010AA3000052
:010AA4000150
:010AA500014F
:010AA600004F
:010AA700004E
:010AA800014C
:010AA900014B
:010AAA00004B
:010AAB000248
:010AAC000346
:010AAD000345
:010AAE000245
:010AAF000046
:010AB0000144
:010AB1000143
:010AB2000043
:010AB3000042
:010AB4000140
:010AB500013F
:010AB600003F
:010AB700003E
:010AB800013C
:010AB900013B
:010ABA00003B
:010ABB00003A
:010ABC000138
:010ABD000137
:010ABE000037
:010ABF000036
:010AC0000134
:010AC1000133
:010AC2000033
:010AC3000131
:010AC400032E
:010AC500032D
:010AC600032C
:010AC700032B
:010AC800032A
:010AC9000329
:010ACA00012A
:010ACB00002A
:010ACC000029
:010ACD000127
:010ACE000126
:010ACF000026
:010AD0000223
:010AD1000321
:010AD2000320
:010AD3000220
:010AD400021F
:010AD500031D
:010AD600031C
:010AD700021C
:010AD800021B
:010AD9000319
:010ADA000318
:010ADB000218
:010ADC000217
:010ADD000315
:010ADE000314
:010ADF000214
:010AE0000015
:010AE1000113
:010AE2000112
:010AE3000012
:010AE4000011
:010AE500010F
:010AE600010E
:010AE700000E
:010AE800000D
:010AE900010B
:010AEA00010A
:010AEB00000A
:010AEC000009
:010AED000107
:010AEE000106
:010AEF000006
:010AF0000005
:010AF1000103
:010AF2000102
:010AF3000002
:010AF4000001
:010AF50001FF
:010AF60001FE
:010AF70000FE
:010AF80002FB
:010AF90003F9
:010AFA0003F8
:010AFB0002F8
:010AFC0002F7
:010AFD0003F5
:010AFE0003F4
:010AFF0002F4
:010B000002F2
:010B010003F0
:010B020003EF
:010B030002EF
:010B040000F0
:010B050001EE
:010B060001ED
:010B070000ED
:010B080000EC
:010B090001EA
:010B0A0001E9
:010B0B0000E9
:010B0C0002E6
:010B0D0003E4
:010B0E0003E3
:010B0F0002E3
:010B100000E4
:010B110001E2
:010B120001E1
:010B130000E1
:010B140000E0
:010B150001DE
:010B160001DD
:010B170000DD
:010B180000DC
:010B190001DA
:010B1A0001D9
:010B1B0000D9
:010B1C0000D8
:010B1D0001D6
:010B1E0001D5
:010B1F0000D5
:010B200000D4
:010B210001D2
:010B220001D1
:010B230000D1
:010B240000D0
:010B250001CE
:010B260001CD
:010B270000CD
:010B280000CC
:010B290001CA
:010B2A0001C9
:010B2B0000C9
:010B2C0000C8
:010B2D0001C6
:010B2E0001C5
:010B2F0000C5
:010B300002C2
:010B310003C0
:010B320003BF
:010B330002BF
:010B340000C0
:010B350001BE
:010B360001BD
:010B370000BD
:010B380000BC
:010B390001BA
:010B3A0001B9
:010B3B0000B9
:010B3C0000B8
:010B3D0001B6
:010B3E0001B5
:010B3F0000B5
:010B400000B4
:010B410001B2
:010B420001B1
:010B430000B1
:010B440000B0
:010B450001AE
:010B460001AD
:010B470000AD
:010B480002AA
:010B490003A8
:010B4A0003A7
:010B4B0002A7
:010B4C0000A8
:010B4D0001A6
:010B4E0001A5
:010B4F0000A5
:010B500002A2
:010B510003A0
:010B5200039F
:010B5300029F
:010B540000A0
:010B5500019E
:010B5600019D
:010B5700009D
:010B5800009C
:010B5900019A
:010B5A000199
:010B5B000099
:010B5C000197
:010B5D000394
:010B5E000393
:010B5F000392
:010B60000391
:010B61000390
:010B6200038F
:010B63000190
:010B64000090
:010B6500008F
:010B6600018D
:010B6700018C
:010B6800008C
:010B69000289
:010B6A000387
:010B6B000386
:010B6C000286
:010B6D000285
:010B6E000383
:010B6F000382
:010B70000282
:010B71000281
:010B7200037F
:010B7300037E
:010B7400027E
:010B7500027D
:010B7600037B
:010B7700037A
:010B7800027A
:010B7900007B
:010B7A000179
:010B7B000178
:010B7C000078
:010B7D000077
:010B7E000175
:010B7F000174
:010B80000074
:010B81000073
:010B82000171
:010B83000170
:010B84000070
:010B8500006F
:010B8600016D
:010B8700016C
:010B8800006C
:010B8900006B
:010B8A000169
:010B8B000168
:010B8C000068
:010B8D000067
:010B8E000165
:010B8F000164
:010B90000064
:010B91000261
:010B9200035F
:010B9300035E
:010B9400025E
:010B9500025D
:010B9600035B
:010B9700035A
:010B9800025A
:010B9900005B
:010B9A000159
:010B9B000158
:010B9C000058
:010B9D000255
:010B9E000353
:010B9F000352
:010BA0000252
:010BA1000251
:010BA200034F
:010BA300034E
:010BA400024E
:010BA500024D
:010BA600034B
:010BA700034A
:010BA800024A
:010BA900004B
:010BAA000149
:010BAB000148
:010BAC000048
:010BAD000047
:010BAE000145
:010BAF000144
:010BB0000044
:010BB1000043
:010BB2000141
:010BB3000140
:010BB4000040
:010BB500023D
:010BB600033B
:010BB700033A
:010BB800023A
:010BB9000239
:010BBA000337
:010BBB000336
:010BBC000236
:010BBD000037
:010BBE000135
:010BBF000134
:010BC0000034
:010BC1000033
:010BC2000131
:010BC3000130
:010BC4000030
:010BC500002F
:010BC600012D
:010BC700012C
:010BC800002C
:010BC9000229
:010BCA000327
:010BCB000326
:010BCC000226
:010BCD000027
:010BCE000125
:010BCF000124
:010BD0000024
:010BD1000023
:010BD2000121
:010BD3000120
:010BD4000020
:010BD500001F
:010BD600011D
:010BD700011C
:010BD800001C
:010BD900001B
:010BDA000119
:010BDB000118
:010BDC000018
:010BDD000215
:010BDE000313
:010BDF000312
:010BE0000212
:010BE1000013
:010BE2000111
:010BE3000110
:010BE4000010
:010BE500000F
:010BE600010D
:010BE700010C
:010BE800000C
:010BE9000209
:010BEA000307
:010BEB000306
:010BEC000206
:010BED000007
:010BEE000105
:010BEF000104
:010BF0000004
:010BF1000003
:010BF2000101
:010BF3000100
:010BF4000000
:010BF50001FE
:010BF60003FB
:010BF70003FA
:010BF80003F9
:010BF90003F8
:010BFA0003F7
:010BFB0003F6
:010BFC0001F7
:010BFD0000F7
:010BFE0000F6
:010BFF0001F4
:010C000001F2
:010C010000F2
:010C020002EF
:010C030003ED
:010C040003EC
:010C050002EC
:010C060002EB
:010C070003E9
:010C080003E8
:010C090002E8
:010C0A0002E7
:010C0B0003E5
:010C0C0003E4
:010C0D0002E4
:010C0E0002E3
:010C0F0003E1
:010C100003E0
:010C110002E0
:010C120000E1
:010C130001DF
:010C140001DE
:010C150000DE
:010C160000DD
:010C170001DB
:010C180001DA
:010C190000DA
:010C1A0000D9
:010C1B0001D7
:010C1C0001D6
:010C1D0000D6
:010C1E0000D5
:010C1F0001D3
:010C200001D2
:010C210000D2
:010C220000D1
:010C230001CF
:010C240001CE
:010C250000CE
:010C260000CD
:010C270001CB
:010C280001CA
:010C290000CA
:010C2A0002C7
:010C2B0003C5
:010C2C0003C4
:010C2D0002C4
:010C2E0002C3
:010C2F0003C1
:010C300003C0
:010C310002C0
:010C320000C1
:010C330001BF
:010C340001BE
:010C350000BE
:010C360002BB
:010C370003B9
:010C380003B8
:010C390002B8
:010C3A0002B7
:010C3B0003B5
:010C3C0003B4
:010C3D0002B4
:010C3E0000B5
:010C3F0001B3
:010C400001B2
:010C410000B2
:010C420000B1
:010C430001AF
:010C440001AE
:010C450000AE
:010C460000AD
:010C470001AB
:010C480001AA
:010C490000AA
:010C4A0000A9
:010C4B0001A7
:010C4C0001A6
:010C4D0000A6
:010C4E0000A5
:010C4F0001A3
:010C500001A2
:010C510000A2
:010C520000A1
:010C5300019F
:010C5400019E
:010C5500009E
:010C5600009D
:010C5700019B
:010C5800019A
:010C5900009A
:010C5A000099
:010C5B000197
:010C5C000196
:010C5D000096
:010C5E000095
:010C5F000193
:010C60000192
:010C61000092
:010C62000091
:010C6300018F
:010C6400018E
:010C6500008E
:010C6600008D
:010C6700018B
:010C6800018A
:010C6900008A
:010C6A000089
:010C6B000187
:010C6C000186
:010C6D000086
:010C6E000085
:010C6F000183
:010C70000182
:010C71000082
:010C72000081
:010C7300017F
:010C7400017E
:010C7500007E
:010C7600007D
:010C7700017B
:010C7800017A
:010C7900007A
:010C7A000277
:010C7B000375
:010C7C000374
:010C7D000274
:010C7E000075
:010C7F000173
:010C80000172
:010C81000072
:010C82000071
:010C8300016F
:010C8400016E
:010C8500006E
:010C8600006D
:010C8700016B
:010C8800016A
:010C8900006A
:010C8A000069
:010C8B000167
:010C8C000166
:010C8D000066
:010C8E000164
:010C8F000361
:010C90000360
:010C9100035F
:010C9200035E
:010C9300035D
:010C9400035C
:010C9500015D
:010C9600005D
:010C9700005C
:010C9800015A
:010C99000159
:010C9A000059
:010C9B000256
:010C9C000354
:010C9D000353
:010C9E000253
:010C9F000252
:010CA0000350
:010CA100034F
:010CA200024F
:010CA300024E
:010CA400034C
:010CA500034B
:010CA600024B
:010CA700024A
:010CA8000348
:010CA9000347
:010CAA000247
:010CAB000048
:010CAC000146
:010CAD000145
:010CAE000045
:010CAF000044
:010CB0000142
:010CB1000141
:010CB2000041
:010CB3000040
:010CB400013E
:010CB500013D
:010CB600003D
:010CB700003C
:010CB800013A
:010CB9000139
:010CBA000039
:010CBB000038
:010CBC000136
:010CBD000135
:010CBE000035
:010CBF000034
:010CC0000132
:010CC1000131
:010CC2000031
:010CC300022E
:010CC400032C
:010CC500032B
:010CC600022B
:010CC700022A
:010CC8000328
:010CC9000327
:010CCA000227
:010CCB000028
:010CCC000126
:010CCD000125
:010CCE000025
:010CCF000222
:010CD0000320
:010CD100031F
:010CD200021F
:010CD300021E
:010CD400031C
:010CD500031B
:010CD600021B
:010CD700001C
:010CD800011A
:010CD9000119
:010CDA000019
:010CDB000018
:010CDC000116
:010CDD000115
:010CDE000015
:010CDF000014
:010CE0000112
:010CE1000111
:010CE2000011
:010CE3000010
:010CE400010E
:010CE500010D
:010CE600000D
:010CE700000C
:010CE800010A
:010CE9000109
:010CEA000009
:010CEB000008
:010CEC000106
:010CED000105
:010CEE000005
:010CEF000004
:010CF0000102
:010CF1000101
:010CF2000001
:010CF3000000
:010CF40001FE
:010CF50001FD
:010CF60000FD
:010CF70000FC
:010CF80001FA
:010CF90001F9
:010CFA0000F9
:010CFB0002F6
:010CFC0003F4
:010CFD0003F3
:010CFE0002F3
:010CFF0000F4
:010D000001F1
:010D010001F0
:010D020000F0
:010D030000EF
:010D040001ED
:010D050001EC
:010D060000EC
:010D070000EB
:010D080001E9
:010D090001E8
:010D0A0000E8
:010D0B0002E5
:010D0C0003E3
:010D0D0003E2
:010D0E0002E2
:010D0F0002E1
:010D100003DF
:010D110003DE
:010D120002DE
:010D130000DF
:010D140001DD
:010D150001DC
:010D160000DC
:010D170000DB
:010D180001D9
:010D190001D8
:010D1A0000D8
:010D1B0002D5
:010D1C0003D3
:010D1D0003D2
:010D1E0002D2
:010D1F0002D1
:010D200003CF
:010D210003CE
:010D220002CE
:010D230000CF
:010D240001CD
:010D250001CC
:010D260000CC
:010D270001CA
:010D280003C7
:010D290003C6
:010D2A0003C5
:010D2B0003C4
:010D2C0003C3
:010D2D0003C2
:010D2E0001C3
:010D2F0000C3
:010D300000C2
:010D310001C0
:010D320001BF
:010D330000BF
:010D340002BC
:010D350003BA
:010D360003B9
:010D370002B9
:010D380002B8
:010D390003B6
:010D3A0003B5
:010D3B0002B5
:010D3C0002B4
:010D3D0003B2
:010D3E0003B1
:010D3F0002B1
:010D400002B0
:010D410003AE
:010D420003AD
:010D430002AD
:010D440000AE
:010D450001AC
:010D460001AB
:010D470000AB
:010D480000AA
:010D490001A8
:010D4A0001A7
:010D4B0000A7
:010D4C0000A6
:010D4D0001A4
:010D4E0001A3
:010D4F0000A3
:010D500000A2
:010D510001A0
:010D5200019F
:010D5300009F
:010D5400009E
:010D5500019C
:010D5600019B
:010D5700009B
:010D5800009A
:010D59000198
:010D5A000197
:010D5B000097
:010D5C000294
:010D5D000392
:010D5E000391
:010D5F000291
:010D60000290
:010D6100038E
:010D6200038D
:010D6300028D
:010D6400008E
:010D6500018C
:010D6600018B
:010D6700008B
:010D6800008A
:010D69000188
:010D6A000187
:010D6B000087
:010D6C000086
:010D6D000184
:010D6E000183
:010D6F000083
:010D70000082
:010D71000180
:010D7200017F
:010D7300007F
:010D7400007E
:010D7500017C
:010D7600017B
:010D7700007B
:010D7800007A
:010D79000178
:010D7A000177
:010D7B000077
:010D7C000076
:010D7D000174
:010D7E000173
:010D7F000073
:010D80000270
:010D8100036E
:010D8200036D
:010D8300026D
:010D8400006E
:010D8500016C
:010D8600016B
:010D8700006B
:010D88000268
:010D89000366
:010D8A000365
:010D8B000265
:010D8C000264
:010D8D000362
:010D8E000361
:010D8F000261
:010D90000062
:010D91000160
:010D9200015F
:010D9300005F
:010D9400025C
:010D9500035A
:010D96000359
:010D97000259
:010D9800005A
:010D99000158
:010D9A000157
:010D9B000057
:010D9C000056
:010D9D000154
:010D9E000153
:010D9F000053
:010DA0000250
:010DA100034E
:010DA200034D
:010DA300024D
:010DA400024C
:010DA500034A
:010DA6000349
:010DA7000249
:010DA800004A
:010DA9000148
:010DAA000147
:010DAB000047
:010DAC000046
:010DAD000144
:010DAE000143
:010DAF000043
:010DB0000042
:010DB1000140
:010DB200013F
:010DB300003F
:010DB400003E
:010DB500013C
:010DB600013B
:010DB700003B
:010DB800003A
:010DB9000138
:010DBA000137
:010DBB000037
:010DBC000036
:010DBD000134
:010DBE000133
:010DBF000033
:010DC0000131
:010DC100032E
:010DC200032D
:010DC300032C
:010DC400032B
:010DC500032A
:010DC6000329
:010DC700012A
:010DC800002A
:010DC9000029
:010DCA000127
:010DCB000126
:010DCC000026
:010DCD000223
:010DCE000321
:010DCF000320
:010DD0000220
:010DD100021F
:010DD200031D
:010DD300031C
:010DD400021C
:010DD500021B
:010DD6000319
:010DD7000318
:010DD8000218
:010DD9000217
:010DDA000315
:010DDB000314
:010DDC000214
:010DDD000015
:010DDE000113
:010DDF000112
:010DE0000012
:010DE1000011
:010DE200010F
:010DE300010E
:010DE400000E
:010DE500000D
:010DE600010B
:010DE700010A
:010DE800000A
:010DE9000009
:010DEA000107
:010DEB000106
:010DEC000006
:010DED000005
:010DEE000103
:010DEF000102
:010DF0000002
:010DF1000001
:010DF20001FF
:010DF30001FE
:010DF40000FE
:010DF50002FB
:010DF60003F9
:010DF70003F8
:010DF80002F8
:010DF90002F7
:010DFA0003F5
:010DFB0003F4
:010DFC0002F4
:010DFD0000F5
:010DFE0001F3
:010DFF0001F2
:010E000000F1
:010E010002EE
:010E020003EC
:010E030003EB
:010E040002EB
:010E050002EA
:010E060003E8
:010E070003E7
:010E080002E7
:010E090000E8
:010E0A0001E6
:010E0B0001E5
:010E0C0000E5
:010E0D0000E4
:010E0E0001E2
:010E0F0001E1
:010E100000E1
:010E110000E0
:010E120001DE
:010E130001DD
:010E140000DD
:010E150000DC
:010E160001DA
:010E170001D9
:010E180000D9
:010E190002D6
:010E1A0003D4
:010E1B0003D3
:010E1C0002D3
:010E1D0000D4
:010E1E0001D2
:010E1F0001D1
:010E200000D1
:010E210000D0
:010E220001CE
:010E230001CD
:010E240000CD
:010E250000CC
:010E260001CA
:010E270001C9
:010E280000C9
:010E290000C8
:010E2A0001C6
:010E2B0001C5
:010E2C0000C5
:010E2D0000C4
:010E2E0001C2
:010E2F0001C1
:010E300000C1
:010E310000C0
:010E320001BE
:010E330001BD
:010E340000BD
:010E350000BC
:010E360001BA
:010E370001B9
:010E380000B9
:010E390002B6
:010E3A0003B4
:010E3B0003B3
:010E3C0002B3
:010E3D0000B4
:010E3E0001B2
:010E3F0001B1
:010E400000B1
:010E410002AE
:010E420003AC
:010E430003AB
:010E440002AB
:010E450000AC
:010E460001AA
:010E470001A9
:010E480000A9
:010E490000A8
:010E4A0001A6
:010E4B0001A5
:010E4C0000A5
:010E4D0002A2
:010E4E0003A0
:010E4F00039F
:010E5000029F
:010E510000A0
:010E5200019E
:010E5300019D
:010E5400009D
:010E5500009C
:010E5600019A
:010E57000199
:010E58000099
:010E59000197
:010E5A000394
:010E5B000393
:010E5C000392
:010E5D000391
:010E5E000390
:010E5F00038F
:010E60000190
:010E61000090
:010E6200008F
:010E6300018D
:010E6400018C
:010E6500008C
:010E66000289
:010E67000387
:010E68000386
:010E69000286
:010E6A000285
:010E6B000383
:010E6C000382
:010E6D000282
:010E6E000281
:010E6F00037F
:010E7000037E
:010E7100027E
:010E7200027D
:010E7300037B
:010E7400037A
:010E7500027A
:010E7600007B
:010E77000179
:010E78000178
:010E79000078
:010E7A000077
:010E7B000175
:010E7C000174
:010E7D000074
:010E7E000073
:010E7F000171
:010E80000170
:010E81000070
:010E8200006F
:010E8300016D
:010E8400016C
:010E8500006C
:010E8600006B
:010E87000169
:010E88000168
:010E89000068
:010E8A000067
:010E8B000165
:010E8C000164
:010E8D000064
:010E8E000261
:010E8F00035F
:010E9000035E
:010E9100025E
:010E9200025D
:010E9300035B
:010E9400035A
:010E9500025A
:010E9600005B
:010E97000159
:010E98000158
:010E99000058
:010E9A000255
:010E9B000353
:010E9C000352
:010E9D000252
:010E9E000251
:010E9F00034F
:010EA000034E
:010EA100024E
:010EA200024D
:010EA300034B
:010EA400034A
:010EA500024A
:010EA600004B
:010EA7000149
:010EA8000148
:010EA9000048
:010EAA000047
:010EAB000145
:010EAC000144
:010EAD000044
:010EAE000043
:010EAF000141
:010EB0000140
:010EB1000040
:010EB200003F
:010EB300013D
:010EB400013C
:010EB500003C
:010EB6000239
:010EB7000337
:010EB8000336
:010EB9000236
:010EBA000235
:010EBB000333
:010EBC000332
:010EBD000232
:010EBE000033
:010EBF000131
:010EC0000130
:010EC1000030
:010EC200022D
:010EC300032B
:010EC400032A
:010EC500022A
:010EC6000229
:010EC7000327
:010EC8000326
:010EC9000226
:010ECA000027
:010ECB000125
:010ECC000124
:010ECD000024
:010ECE000023
:010ECF000121
:010ED0000120
:010ED1000020
:010ED200001F
:010ED300011D
:010ED400011C
:010ED500001C
:010ED6000219
:010ED7000317
:010ED8000316
:010ED9000216
:010EDA000017
:010EDB000115
:010EDC000114
:010EDD000014
:010EDE000013
:010EDF000111
:010EE0000110
:010EE1000010
:010EE200000F
:010EE300010D
:010EE400010C
:010EE500000C
:010EE600000B
:010EE7000109
:010EE8000108
:010EE9000008
:010EEA000007
:010EEB000105
:010EEC000104
:010EED000004
:010EEE000003
:010EEF000101
:010EF0000100
:010EF1000000
:010EF20001FE
:010EF30003FB
:010EF40003FA
:010EF50003F9
:010EF60003F8
:010EF70003F7
:010EF80003F6
:010EF90001F7
:010EFA0000F7
:010EFB0000F6
:010EFC0001F4
:010EFD0001F3
:010EFE0000F3
:010EFF0002F0
:010F000003ED
:010F010003EC
:010F020002EC
:010F030002EB
:010F040003E9
:010F050003E8
:010F060002E8
:010F070002E7
:010F080003E5
:010F090003E4
:010F0A0002E4
:010F0B0002E3
:010F0C0003E1
:010F0D0003E0
:010F0E0002E0
:010F0F0000E1
:010F100001DF
:010F110001DE
:010F120000DE
:010F130000DD
:010F140001DB
:010F150001DA
:010F160000DA
:010F170000D9
:010F180001D7
:010F190001D6
:010F1A0000D6
:010F1B0000D5
:010F1C0001D3
:010F1D0001D2
:010F1E0000D2
:010F1F0000D1
:010F200001CF
:010F210001CE
:010F220000CE
:010F230002CB
:010F240003C9
:010F250003C8
:010F260002C8
:010F270000C9
:010F280001C7
:010F290001C6
:010F2A0000C6
:010F2B0000C5
:010F2C0001C3
:010F2D0001C2
:010F2E0000C2
:010F2F0000C1
:010F300001BF
:010F310001BE
:010F320000BE
:010F330002BB
:010F340003B9
:010F350003B8
:010F360002B8
:010F370002B7
:010F380003B5
:010F390003B4
:010F3A0002B4
:010F3B0002B3
:010F3C0003B1
:010F3D0003B0
:010F3E0002B0
:010F3F0000B1
:010F400001AF
:010F410001AE
:010F420000AE
:010F430000AD
:010F440001AB
:010F450001AA
:010F460000AA
:010F470000A9
:010F480001A7
:010F490001A6
:010F4A0000A6
:010F4B0000A5
:010F4C0001A3
:010F4D0001A2
:010F4E0000A2
:010F4F00029F
:010F5000039D
:010F5100039C
:010F5200029C
:010F5300029B
:010F54000399
:010F55000398
:010F56000298
:010F57000297
:010F58000395
:010F59000394
:010F5A000294
:010F5B000095
:010F5C000193
:010F5D000192
:010F5E000092
:010F5F000091
:010F6000018F
:010F6100018E
:010F6200008E
:010F6300008D
:010F6400018B
:010F6500018A
:010F6600008A
:010F67000089
:010F68000187
:010F69000186
:010F6A000086
:010F6B000283
:010F6C000381
:010F6D000380
:010F6E000280
:010F6F000081
:010F7000017F
:010F7100017E
:010F7200007E
:010F7300027B
:010F74000379
:010F75000378
:010F76000278
:010F77000079
:010F78000177
:010F79000176
:010F7A000076
:010F7B000075
:010F7C000173
:010F7D000172
:010F7E000072
:010F7F000071
:010F8000016F
:010F8100016E
:010F8200006E
:010F8300006D
:010F8400016B
:010F8500016A
:010F8600006A
:010F87000069
:010F88000167
:010F89000166
:010F8A000066
:010F8B000164
:010F8C000361
:010F8D000360
:010F8E00035F
:010F8F00035E
:010F9000035D
:010F9100035C
:010F9200015D
:010F9300005D
:010F9400005C
:010F9500015A
:010F96000159
:010F97000059
:010F98000256
:010F99000354
:010F9A000353
:010F9B000253
:010F9C000252
:010F9D000350
:010F9E00034F
:010F9F00024F
:010FA000024E
:010FA100034C
:010FA200034B
:010FA300024B
:010FA400024A
:010FA5000348
:010FA6000347
:010FA7000247
:010FA8000048
:010FA9000146
:010FAA000145
:010FAB000045
:010FAC000044
:010FAD000142
:010FAE000141
:010FAF000041
:010FB0000040
:010FB100013E
:010FB200013D
:010FB300003D
:010FB400003C
:010FB500013A
:010FB6000139
:010FB7000039
:010FB8000038
:010FB9000136
:010FBA000135
:010FBB000035
:010FBC000034
:010FBD000132
:010FBE000131
:010FBF000031
:010FC000022E
:010FC100032C
:010FC200032B
:010FC300022B
:010FC400022A
:010FC5000328
:010FC6000327
:010FC7000227
:010FC8000226
:010FC9000324
:010FCA000323
:010FCB000223
:010FCC000024
:010FCD000122
:010FCE000121
:010FCF000021
:010FD000021E
:010FD100031C
:010FD200031B
:010FD300021B
:010FD400001C
:010FD500011A
:010FD6000119
:010FD7000019
:010FD8000018
:010FD9000116
:010FDA000115
:010FDB000015
:010FDC000014
:010FDD000112
:010FDE000111
:010FDF000011
:010FE0000010
:010FE100010E
:010FE200010D
:010FE300000D
:010FE400000C
:010FE500010A
:010FE6000109
:010FE7000009
:010FE8000206
:010FE9000304
:010FEA000303
:010FEB000203
:010FEC000202
:010FED000300
:010FEE0003FF
:010FEF0002FF
:010FF0000000
:010FF10001FE
:010FF20001FD
:010FF30000FD
:010FF40000FC
:010FF50001FA
:010FF60001F9
:010FF70000F9
:010FF80000F8
:010FF90001F6
:010FFA0001F5
:010FFB0000F5
:010FFC0000F4
:010FFD0001F2
:010FFE0001F1
:010FFF0000F1
:0110000000EF
:0110010001ED
:0110020001EC
:0110030000EC
:0110040000EB
:0110050001E9
:0110060001E8
:0110070000E8
:0110080000E7
:0110090001E5
:01100A0001E4
:01100B0000E4
:01100C0000E3
:01100D0001E1
:01100E0001E0
:01100F0000E0
:0110100000DF
:0110110001DD
:0110120001DC
:0110130000DC
:0110140000DB
:0110150001D9
:0110160001D8
:0110170000D8
:0110180000D7
:0110190001D5
:01101A0001D4
:01101B0000D4
:01101C0000D3
:01101D0001D1
:01101E0001D0
:01101F0000D0
:0110200000CF
:0110210001CD
:0110220001CC
:0110230000CC
:0110240001CA
:0110250003C7
:0110260003C6
:0110270003C5
:0110280003C4
:0110290003C3
:01102A0003C2
:01102B0001C3
:01102C0000C3
:01102D0000C2
:01102E0001C0
:01102F0001BF
:0110300000BF
:0110310002BC
:0110320003BA
:0110330003B9
:0110340002B9
:0110350002B8
:0110360003B6
:0110370003B5
:0110380002B5
:0110390002B4
:01103A0003B2
:01103B0003B1
:01103C0002B1
:01103D0002B0
:01103E0003AE
:01103F0003AD
:0110400002AD
:0110410000AE
:0110420001AC
:0110430001AB
:0110440000AB
:0110450000AA
:0110460001A8
:0110470001A7
:0110480000A7
:0110490000A6
:01104A0001A4
:01104B0001A3
:01104C0000A3
:01104D0000A2
:01104E0001A0
:01104F00019F
:01105000009F
:01105100009E
:01105200019C
:01105300019B
:01105400009B
:01105500009A
:011056000198
:011057000197
:011058000097
:011059000294
:01105A000392
:01105B000391
:01105C000291
:01105D000290
:01105E00038E
:01105F00038D
:01106000028D
:01106100028C
:01106200038A
:011063000389
:011064000289
:01106500008A
:011066000188
:011067000187
:011068000087
:011069000284
:01106A000382
:01106B000381
:01106C000281
:01106D000082
:01106E000180
:01106F00017F
:01107000007F
:01107100007E
:01107200017C
:01107300017B
:01107400007B
:01107500007A
:011076000178
:011077000177
:011078000077
:011079000076
:01107A000174
:01107B000173
:01107C000073
:01107D000072
:01107E000170
:01107F00016F
:01108000006F
:01108100026C
:01108200036A
:011083000369
:011084000269
:011085000268
:011086000366
:011087000365
:011088000265
:011089000066
:01108A000164
:01108B000163
:01108C000063
:01108D000062
:01108E000160
:01108F00015F
:01109000005F
:01109100025C
:01109200035A
:011093000359
:011094000259
:01109500005A
:011096000158
:011097000157
:011098000057
:011099000254
:01109A000352
:01109B000351
:01109C000251
:01109D000250
:01109E00034E
:01109F00034D
:0110A000024D
:0110A100024C
:0110A200034A
:0110A3000349
:0110A4000249
:0110A5000248
:0110A6000346
:0110A7000345
:0110A8000245
:0110A9000244
:0110AA000342
:0110AB000341
:0110AC000241
:0110AD000042
:0110AE000140
:0110AF00013F
:0110B000003F
:0110B100003E
:0110B200013C
:0110B300013B
:0110B400003B
:0110B500003A
:0110B6000138
:0110B7000137
:0110B8000037
:0110B9000036
:0110BA000134
:0110BB000133
:0110BC000033
:0110BD000131
:0110BE00032E
:0110BF00032D
:0110C000032C
:0110C100032B
:0110C200032A
:0110C3000329
:0110C400012A
:0110C500002A
:0110C6000029
:0110C7000127
:0110C8000126
:0110C9000026
:0110CA000223
:0110CB000321
:0110CC000320
:0110CD000220
:0110CE00021F
:0110CF00031D
:0110D000031C
:0110D100021C
:0110D200021B
:0110D3000319
:0110D4000318
:0110D5000218
:0110D6000217
:0110D7000315
:0110D8000314
:0110D9000214
:0110DA000015
:0110DB000113
:0110DC000112
:0110DD000012
:0110DE000011
:0110DF00010F
:0110E000010E
:0110E100000E
:0110E200000D
:0110E300010B
:0110E400010A
:0110E500000A
:0110E6000009
:0110E7000107
:0110E8000106
:0110E9000006
:0110EA000005
:0110EB000103
:0110EC000102
:0110ED000002
:0110EE000001
:0110EF0001FF
:0110F00001FE
:0110F10000FE
:0110F20002FB
:0110F30003F9
:0110F40003F8
:0110F50002F8
:0110F60002F7
:0110F70003F5
:0110F80003F4
:0110F90002F4
:0110FA0000F5
:0110FB0001F3
:0110FC0001F2
:0110FD0000F2
:0110FE0002EF
:0110FF0003ED
:0111000003EB
:0111010002EB
:0111020002EA
:0111030003E8
:0111040003E7
:0111050002E7
:0111060000E8
:0111070001E6
:0111080001E5
:0111090000E5
:01110A0000E4
:01110B0001E2
:01110C0001E1
:01110D0000E1
:01110E0000E0
:01110F0001DE
:0111100001DD
:0111110000DD
:0111120000DC
:0111130001DA
:0111140001D9
:0111150000D9
:0111160002D6
:0111170003D4
:0111180003D3
:0111190002D3
:01111A0002D2
:01111B0003D0
:01111C0003CF
:01111D0002CF
:01111E0000D0
:01111F0001CE
:0111200001CD
:0111210000CD
:0111220002CA
:0111230003C8
:0111240003C7
:0111250002C7
:0111260000C8
:0111270001C6
:0111280001C5
:0111290000C5
:01112A0002C2
:01112B0003C0
:01112C0003BF
:01112D0002BF
:01112E0000C0
:01112F0001BE
:0111300001BD
:0111310000BD
:0111320000BC
:0111330001BA
:0111340001B9
:0111350000B9
:0111360000B8
:0111370001B6
:0111380001B5
:0111390000B5
:01113A0000B4
:01113B0001B2
:01113C0001B1
:01113D0000B1
:01113E0002AE
:01113F0003AC
:0111400003AB
:0111410002AB
:0111420002AA
:0111430003A8
:0111440003A7
:0111450002A7
:0111460002A6
:0111470003A4
:0111480003A3
:0111490002A3
:01114A0000A4
:01114B0001A2
:01114C0001A1
:01114D0000A1
:01114E0000A0
:01114F00019E
:01115000019D
:01115100009D
:01115200009C
:01115300019A
:011154000199
:011155000099
:011156000197
:011157000394
:011158000393
:011159000392
:01115A000391
:01115B000390
:01115C00038F
:01115D000190
:01115E000090
:01115F00008F
:01116000018D
:01116100018C
:01116200008C
:011163000289
:011164000387
:011165000386
:011166000286
:011167000285
:011168000383
:011169000382
:01116A000282
:01116B000281
:01116C00037F
:01116D00037E
:01116E00027E
:01116F00027D
:01117000037B
:01117100037A
:01117200027A
:01117300007B
:011174000179
:011175000178
:011176000078
:011177000077
:011178000175
:011179000174
:01117A000074
:01117B000073
:01117C000171
:01117D000170
:01117E000070
:01117F00006F
:01118000016D
:01118100016C
:01118200006C
:01118300006B
:011184000169
:011185000168
:011186000068
:011187000067
:011188000165
:011189000164
:01118A000064
:01118B000261
:01118C00035F
:01118D00035E
:01118E00025E
:01118F00025D
:01119000035B
:01119100035A
:01119200025A
:01119300005B
:011194000159
:011195000158
:011196000058
:011197000255
:011198000353
:011199000352
:01119A000252
:01119B000251
:01119C00034F
:01119D00034E
:01119E00024E
:01119F00004F
:0111A000014D
:0111A100014C
:0111A200004C
:0111A300004B
:0111A4000149
:0111A5000148
:0111A6000048
:0111A7000047
:0111A8000145
:0111A9000144
:0111AA000044
:0111AB000043
:0111AC000141
:0111AD000140
:0111AE000040
:0111AF00023D
:0111B000033B
:0111B100033A
:0111B200023A
:0111B3000239
:0111B4000337
:0111B5000336
:0111B6000236
:0111B7000037
:0111B8000135
:0111B9000134
:0111BA000034
:0111BB000231
:0111BC00032F
:0111BD00032E
:0111BE00022E
:0111BF00002F
:0111C000012D
:0111C100012C
:0111C200002C
:0111C300002B
:0111C4000129
:0111C5000128
:0111C6000028
:0111C7000027
:0111C8000125
:0111C9000124
:0111CA000024
:0111CB000023
:0111CC000121
:0111CD000120
:0111CE000020
:0111CF00021D
:0111D000031B
:0111D100031A
:0111D200021A
:0111D300001B
:0111D4000119
:0111D5000118
:0111D6000018
:0111D7000017
:0111D8000115
:0111D9000114
:0111DA000014
